:1000000014C0EEC016C121C064C11FC01EC01DC0F7
:100010001CC01BC01AC019C018C034C116C015C0FE
:1000200014C013C012C011C0B2C011241FBECFE54E
:10003000D1E0DEBFCDBF20E0A0E6B0E001C01D9260
:10004000A636B207E1F77CD1A4C1DACF8091620075
:1000500090916300459711F4949A089580916200FD
:1000600090916300409711F4959A089580916200F1
:1000700090916300099709F4969A0895809162001F
:1000800090916300892B19F482B38F7082BB08951D
:10009000CF93DF9300D0CDB7DEB79A838983898170
:1000A0009A812091600030916100821B930B9A83AA
:1000B00089838091620090916300892BE1F08981AE
:1000C0009A812AE030E0B9013DD1809365008981B1
:1000D0009A81B90137D16093640088B3909165002B
:1000E000807F892B88BB98B3809164009F70829534
:1000F000807F892B0CC038B328B381E090E002C028
:10010000880F991F3A95E2F780959095822388BBD6
:10011000909165008091640091110CC081110AC01A
:100120001A8219821092610010926000109263008E
:10013000109262000F900F90DF91CF9108958FEF92
:1001400087BB80E781BB299A8BB780618BBF8BB758
:1001500080648BBF8BB780688BBF80B7826080BFA5
:100160008FE086BF83B7846083BF89B7816089BF12
:1001700080B7886080BF82E49FE09BBD8ABD8EB55A
:1001800084608EBD89B7806489BF789408951F927A
:100190000F920FB60F9211242F933F934F935F93BB
:1001A0006F937F938F939F93AF93BF93EF93FF933F
:1001B00089E090E0909363008093620047DFFF91B5
:1001C000EF91BF91AF919F918F917F916F915F91CF
:1001D0004F913F912F910F900FBE0F901F90189548
:1001E0001F920F920FB60F9211242F933F934F93AC
:1001F0005F936F937F938F939F93AF93BF93EF938F
:10020000FF9380E190E090936300809362001EDF93
:10021000FF91EF91BF91AF919F918F917F916F91DE
:100220005F914F913F912F910F900FBE0F901F90B4
:1002300018951F920F920FB60F9211242F933F9390
:100240004F935F936F937F938F939F93AF93BF93DE
:10025000EF93FF9385E190E09093630080936200B9
:10026000F5DEFF91EF91BF91AF919F918F917F91BB
:100270006F915F914F913F912F910F900FBE0F9013
:100280001F9018951F920F920FB60F9211242F9363
:100290003F934F935F936F937F938F939F93AF930E
:1002A000BF93EF93FF938091620090916300F0DE23
:1002B000FF91EF91BF91AF919F918F917F916F913E
:1002C0005F914F913F912F910F900FBE0F901F9014
:1002D00018951F920F920FB60F9211242F933F93F0
:1002E0004F935F936F937F938F939F93AF93BF933E
:1002F000EF93FF938091620090916300892B29F422
:10030000109261001092600009C08091600090918D
:10031000610001969093610080936000AFDEFF91D1
:10032000EF91BF91AF919F918F917F916F915F916D
:100330004F913F912F910F900FBE0F901F901895E6
:10034000FEDEFFCF97FB072E16F4009406D077FD54
:1003500008D00BD007FC05D03EF4909581959F4FB7
:100360000895709561957F4F0895AA1BBB1B51E1BD
:1003700007C0AA1FBB1FA617B70710F0A61BB70B15
:10038000881F991F5A95A9F780959095BC01CD01BA
:060390000895F894FFCF70
:00000001FF
