:1000000014C093C1BBC121C009C21FC01EC01DC006
:100010001CC01BC01AC019C018C0D9C116C015C059
:1000200014C013C012C011C057C111241FBECFE5A8
:10003000D1E0DEBFCDBF20E0A0E6B0E001C01D9260
:10004000A636B207E1F722D24AC2DACF8091620027
:1000500090916300892B19F482B38F7082BB209139
:1000600060003091610080916200909163002817D8
:10007000390719F48BB384E08BBB0895809162003B
:100080009091630080319105D9F18531910509F492
:100090005CC0099709F084C0809160009091610074
:1000A000892B09F458C08091600090916100181666
:1000B000190634F480916000909161000497F4F087
:1000C000809160009091610004973CF08091600005
:1000D0009091610006970CF458C080916000909157
:1000E0006100069764F0209160003091610080917A
:1000F000620090916300281739070CF4D89AA6CFB4
:100100008091600090916100892B29F180916000BD
:1001100090916100029734F08091600090916100AD
:10012000079764F38091600090916100079734F025
:1001300080916000909161000B973CF1809160008C
:10014000909161000B977CF6DACF809160009091DE
:100150006100892B11F4DA98D2CF809160009091E0
:100160006100039734F080916000909161000A97DC
:100170002CF280916000909161000A974CF0809180
:100180006000909161000F971CF4D898D99AB7CF6E
:1001900080916000909161000F970CF4B0CFA3CFD5
:1001A00008958091620090916300459711F4949AAC
:1001B0000FC08091620090916300409711F4959A6E
:1001C00007C08091620090916300099711F4969A9C
:1001D00055CF0895CF93DF9300D0CDB7DEB79A8384
:1001E000898389819A812091600030916100821B0E
:1001F000930B9A8389838091620090916300892B8D
:10020000E1F089819A812AE030E0B90141D18093FF
:10021000650089819A81B9013BD16093640088B3FC
:1002200090916500807F892B88BB98B38091640092
:100230009F708295807F892B0CC038B328B381E0F2
:1002400090E002C0880F991F3A95E2F7809590954B
:10025000822388BB909165008091640091110CC04D
:1002600081110AC01A8219821092610010926000F6
:1002700010926300109262000F900F90DF91CF9167
:1002800008958FEF87BB80E781BB87E08ABBDA9A4E
:10029000299A8BB780618BBF8BB780648BBF8BB77C
:1002A00080688BBF80B7826080BF8FE086BF83B7D6
:1002B000846083BF89B7816089BF80B7886080BF51
:1002C00082E49FE09BBD8ABD8EB584608EBD89B7F8
:1002D000806489BF789408951F920F920FB60F9291
:1002E00011242F933F934F935F936F937F938F933B
:1002F0009F93AF93BF93EF93FF9389E090E0909328
:100300006300809362004DDFFF91EF91BF91AF9149
:100310009F918F917F916F915F914F913F912F911D
:100320000F900FBE0F901F9018951F920F920FB64F
:100330000F9211242F933F934F935F936F937F936B
:100340008F939F93AF93BF93EF93FF9380E190E0E0
:10035000909363008093620024DFFF91EF91BF913F
:10036000AF919F918F917F916F915F914F913F914D
:100370002F910F900FBE0F901F9018951F920F9204
:100380000FB60F9211242F933F934F935F936F9368
:100390007F938F939F93AF93BF93EF93FF9385E1E9
:1003A00090E09093630080936200FBDEFF91EF91F9
:1003B000BF91AF919F918F917F916F915F914F917D
:1003C0003F912F910F900FBE0F901F9018951F9285
:1003D0000F920FB60F9211242F933F934F935F9379
:1003E0006F937F938F939F93AF93BF93EF93FF93FD
:1003F0008091620090916300EDDEFF91EF91BF91DB
:10040000AF919F918F917F916F915F914F913F91AC
:100410002F910F900FBE0F901F9018951F920F9263
:100420000FB60F9211242F933F934F935F936F93C7
:100430007F938F939F93AF93BF93EF93FF9380919D
:10044000620090916300892B29F410926100109250
:10045000600009C0809160009091610001969093C6
:10046000610080936000F2DD09DEFF91EF91BF91A2
:10047000AF919F918F917F916F915F914F913F913C
:100480002F910F900FBE0F901F901895FADEFFCF9F
:1004900097FB072E16F4009406D077FD08D00BD0FA
:1004A00007FC05D03EF4909581959F4F0895709577
:1004B00061957F4F0895AA1BBB1B51E107C0AA1F7E
:1004C000BB1FA617B70710F0A61BB70B881F991FF5
:1004D0005A95A9F780959095BC01CD010895F8949F
:0204E000FFCF4C
:00000001FF
